:020000040000FA
:1000000018020020F100000017010000D5000000D8
:1000100000000000000000000000000000000000E0
:100020000000000000000000000000001B010000B4
:1000300000000000000000001D0100001F01000082
:100040002101000021010000210100002101000028
:100050002101000021010000210100002101000018
:10006000210100008907000021010000210100009A
:1000700021010000210100002101000021010000F8
:1000800021010000210100002101000021010000E8
:1000900021010000210100002101000021010000D8
:1000A00021010000210100002101000021010000C8
:1000B00021010000210100002101000021010000B8
:1000C0000348854600F09AF800480047790E000082
:1000D0001802002004207146084202D0EFF3098084
:1000E00001E0EFF308807146004A1047C5040000A4
:1000F0000C480D4901600D4901600D4901600D4A30
:100100000D4911600D4A0E491160002101600D4832
:1001100080470D480047FEE7FEE7FEE7FEE7FEE703
:10012000FEE700000001004059000000160000003A
:100130008800000024000040A55A00008002004012
:10014000010000006D060000C100000030B50B4644
:10015000014600202022012409E00D46D5409D42A1
:1001600005D31D469540491B254695404019154627
:10017000521E002DF1DC30BD03460B439B0703D01C
:1001800009E008C9121F08C0042AFAD203E00B785C
:100190000370401C491C521EF9D27047F0B51FB4C1
:1001A0000646002082B005464024019100901BE0E5
:1001B000019922460F46304600F042F8049A059B0A
:1001C000801A994110D310461946224600F028F8AB
:1001D000361A8F410197224601200021009F00F02E
:1001E0001FF838184D4100902046641E0028DFDCBF
:1001F000019B00982946324607B0F0BD064C012508
:10020000064E05E0E36807CC2B430C3C98471034BE
:10021000B442F7D3FFF758FF081000002810000081
:1002200010B5202A04DB0146203A9140002010BD81
:10023000914020239C1A0346E3401943904010BD8F
:1002400010B5202A04DB0846203AD040002110BD1A
:100250000B46D340D0402024A21A914008431946AF
:1002600010BD000010B50C4C20694007400F02285B
:100270000AD12068042108432060102000F00CF906
:100280002069072108432061034840300168821338
:100290001143016010BD00000002004052010A43FA
:1002A00010210A4306490A62054940398A684023F9
:1002B0001A438A604A6970239A4302434A6170472D
:1002C000400200400EB509490EC900910192810F0C
:1002D0008A00029369468A58054951184A68C3063C
:1002E000DB0E0120984002434A600EBDC00F0000A3
:1002F0000002004002490A6802430A607047000099
:100300000002004010B500F067F90148006810BD18
:100310000000002002480068C00700D00148704774
:10032000000200400048E80104480068800702D548
:100330000120C00370470020704700000002004009
:1003400010B500F049F90448406B41070348490FD4
:100350000068C84010BD00000002004000000020FE
:1003600010B500F039F90448406B4006410F0348CE
:100370000068C84010BD00000002004000000020DE
:1003800008B511A0006811490090096800200522F5
:100390001204114216D1080301D50D4800E00D48A2
:1003A0008A030FD40A04920F6B469B5CCA0589042A
:1003B000D20DC90E891C8008921C59435043FFF787
:1003C000C5FE800008BD000001020204400200409A
:1003D000001BB7000048E801F3B5124881B0056979
:1003E0000F4610200F4C0540403C20680426304347
:1003F0002060102000F050F8206907210843206198
:10040000206A00090001384320622069884301996D
:100410000843206100F0E0F8002D02D12068B043CD
:100420002060FEBD40020040F0B5194B88B0F0CB13
:10043000009401ACE0C478CB04AF78C7840A2306EB
:100440001B0E0ED003039B0F9B0004ADEB58114D08
:100450005B19E5B28405E40EA5401C68AC43144367
:100460001C60420E520710D08200920F92006B4621
:100470009A58084B103BD21803015B0FC001C00E05
:100480008340106898430843106008B0F0BD000036
:10049000A00F00002002004010B504460749084B99
:1004A00005E00A46491E002A01DC002010BD1A6939
:1004B00020469043F5D1012010BD000080F52000BA
:1004C00040020040044603A000F076FA204600F007
:1004D000DFFCFEE7496E2048617264204661756C5E
:1004E000742048616E646C65720A0000F8B559208A
:1004F000254C162188222060216022602368002B71
:10050000F9D00420FFF7F6FE1020FFF7C5FFFFF734
:10051000A9FE1E4801681E4A090D090589180160D7
:100520000420FFF7B9FF00210720FFF755FF174808
:10053000002540384563174E3046FFF7C3FE164F7F
:100540003846FFF7BFFE0121002289063046FFF73B
:100550006BFF0721002209033846FFF765FFB0064D
:10056000C16BFF2212049143332252048918C163E4
:10057000C16B0F2212069143072252068918C163EC
:1005800000F02AF82560F8BD00010040400200405C
:100590003EC00800103D805F0300C05E0121020ED6
:1005A000890751188B680122824013438B60886849
:1005B000904388607047000006498A691202FCD4A3
:1005C00008600A2804D188690002FCD40D20086064
:1005D0007047000000000740F8B51D4D28691C4910
:1005E00044071CA000680090640F00204031096897
:1005F00005221204114216D1080301D5164800E065
:1006000016488A030FD40A04920F6B469B5CCA05F6
:100610008904D20DC90E891C8008921C594350438D
:10062000FFF794FD80000E4E022CB06002D00D4901
:10063000A0000858296A0907090F491CFFF786FD21
:10064000094930604A108018FFF780FD7060F8BDDE
:100650000002004001020204001BB7000048E8014C
:1006600000000020380F000040420F0010B5592153
:100670000A48162388220160036002600468002C87
:10068000F9D007490B680722120593430B600B68EA
:1006900013430B600021016010BD00000001004009
:1006A0000002004010B50A4C7D220121D200C9068B
:1006B000204600F049F8206821060843206008150C
:1006C00004490860206889050843206010BD0000C7
:1006D0002000054000E100E010B588B0044620226B
:1006E00015496846FFF748FD144B144A1448203357
:1006F000944202D14069000A0BE09C4202D1406959
:10070000000B06E00F4940698C4201D1000C00E06B
:10071000000D4107490F022904D088006946085896
:1007200008B010BD944201D09C4202D1FFF708FEF0
:10073000F6E7FFF715FEF3E7D80F000000000540CD
:100740000002004000100540F7B517460646FFF7C7
:10075000C3FF054600244008B84201D8022008E043
:1007600039462846FFF7F2FC040E02D0611CFFF761
:10077000EDFC0199214331607060641C60430146C7
:100780002846FFF7E3FCFEBD10B50C488168C90799
:10079000C90F12D00121816009490888421C0A80D2
:1007A0007D22D200904208D3002008804A68501C65
:1007B0004860044904A000F0FFF810BD2000054087
:1007C00010000020F80F00002573203A2025346423
:1007D0000D0A000010B51648FFF7E0FE154CE121A8
:1007E0004902204600F06AF81421204600F0D8F8AB
:1007F000FFF788FD014610A000F0DEF8FFF78AFD44
:10080000014614A000F0D8F8FFF78EFD014617A0AE
:1008100000F0D2F8FFF794FD01461AA000F0CCF8E2
:10082000FFF79EFD01461EA000F0C6F810BD0000B7
:1008300010000004000007400D0A434C4B5F476561
:100840007443505546726571203A202538640D0A6C
:1008500000000000434C4B5F476574485854467293
:100860006571203A202538640D0A0000434C4B5F27
:100870004765744C585446726571203A2025386497
:100880000D0A0000434C4B5F47657450434C4B309E
:1008900046726571203A202538640D0A0000000078
:1008A000434C4B5F47657450434C4B314672657106
:1008B000203A202538640D0A00000000F0B587B00A
:1008C0000F46044600252E4618222E496846FFF79B
:1008D00053FC2D492D482E4A8C4205D14369006AAC
:1008E0005B015D0F000A0FE02A4B9C4206D1436971
:1008F000006A5B005D0F0004060F07E0944205D11B
:10090000C369006B5B015D0F0607360F0020206393
:100910000320E060A068204B1840A060012D02D0A9
:10092000042D04D00DE0FFF72BFD019009E08C426F
:1009300001D0944202D1FFF703FD01E0FFF710FD63
:100940000490002F1BD0A90068464058711CFFF787
:10095000FDFB0546790840183946FFF7F7FB0F49BC
:10096000801E884207D9F90068183946FFF7EEFB68
:100970000009801E02E0032109070843606207B0F6
:10098000F0BD0000580F00000000074000020040CA
:1009900000200740001007400FFFF0FFFFFF00009E
:1009A000026A120A12020A43026241680122D2025A
:1009B00011434160704700000FB410B503A9044B08
:1009C000044A029800F018F810BC08BC04B018479C
:1009D0006D0E00000C00002002E008C8121F08C1C4
:1009E000002AFAD170477047002001E001C1121FB0
:1009F000002AFBD170470000FFB591B00F460546B5
:100A0000002606E025280AD0149A139990476D1CF9
:100A1000761C28780028F5D1304615B0F0BD0024AA
:100A200000940121F34A029400E004436D1C2B78EA
:100A30000846203B98401042F7D128782A280ED04B
:100A4000022128780246303A092A15D8009A0A234A
:100A50005A43303A80180C436D1C0090F1E701CFE7
:100A60000090002805DA012040030443009840422A
:100A70000090022004436D1C28782E2815D10420F4
:100A8000044368786D1C2A280AD101CF6D1C02909E
:100A90000BE002990A225143303940186D1C029034
:100AA0002878014630390929F3D928786C2810D0E4
:100AB00006DC4C281AD068280ED06A2817D104E02A
:100AC000742813D07A2812D110E001204005044385
:100AD0000CE00121090501E0032109050C436978B7
:100AE000814203D10120000524186D1C6D1C28785B
:100AF00003906E281ED00CDC632831D004DC002863
:100B00008AD0582811D1B2E064287BD069280CD152
:100B100078E073282DD004DC6F2870D0702804D1C1
:100B2000A7E075286CD078286BD0149A1399904759
:100B3000761C62E06002400F022807D003280AD02A
:100B4000042838680AD006603F1D56E03868F1175F
:100B500006604160F8E738680680F5E70670F3E75D
:100B60003878694608740020487404A8039001206E
:100B700003E0386803900020C0433F1D61070FD594
:100B8000002101E00199491C029A0191914213DA76
:100B90008142F7DB019A0399895C0029F2D10BE0CD
:100BA000002101E00199491C01918142FADB019A7F
:100BB0000399895C0029F5D101990098139A401A8C
:100BC00000902146149B00F03BF9019980194618CA
:100BD00007E0039803990078491C0391149A13992C
:100BE00090470198401E0190401CF2D12146149B71
:100BF000139A009800F014F986196D1C09E741E07A
:100C000033E034E00A200021049005916002410F96
:100C1000022905D001CFC2179446032905D007E069
:100C2000FF1DFF08FF0003CF06E000B2C217944685
:100C3000042902D140B2C1178C4600226146944576
:100C400006DA0A460021404291418C462D2102E0FD
:100C5000210504D52B216A461176012103E0E10725
:100C600001D02021F7E7019154E00A200BE0102089
:100C700009E010200490002104200443082005917D
:100C8000029003E008200021059104906002410FCA
:100C9000022905D001CF00229446032906D006E0A0
:100CA000FF1DFF08FF0003CF8C4603E080B204293C
:100CB00000D1C0B20021019121072BD503997029E1
:100CC00006D0049A1021059B4A401A4305D00EE035
:100CD00040216A461176012108E06146014306D0B1
:100CE00030216A4611760399517602210191049AC6
:100CF0000821059B4A401A430CD16146014301D1AA
:100D0000610707D530216A461176012101910299C8
:100D1000491E02910399582904D037A103910FA9C4
:100D20000F910DE039A1F9E76146059B049AFFF7A1
:100D300035FA039B8C469B5C0F9A521E0F921370E0
:100D400061460143F0D10F9807A9081A203003909B
:100D5000600704D5012000048443029801E00120CB
:100D600002900399884201DD401A00E000204118FA
:100D70000290019809180098401A0090E00306D4E8
:100D80002146149B139A009800F05AF88619002007
:100D9000049008E006A9085C149A139990470498F7
:100DA000401C761C049001998842F3DBE0030CD5CB
:100DB0002146149B139A009800F042F8861904E02B
:100DC000149A302013999047761C0299481E02907D
:100DD0000029F5DC08E00F980F990078491C0F9165
:100DE000149A13999047761C0399481E0390002982
:100DF000F1DCFBE609280100303132333435363777
:100E00003839616263646566000000003031323356
:100E100034353637383941424344454600000000F6
:100E2000F8B5044600251E461746880404D405E09C
:100E300039462020B0476D1C641EF9D52846F8BD00
:100E4000FFB50446002581B01E46C80301D53027F2
:100E500000E02027880404D505E038460399B04710
:100E60006D1C641EF9D5284605B0F0BD10B50446CA
:100E7000FFF7A2FB204610BDFFF738FBFFF7AAFCE7
:100E8000002202213020FFF709FAFFF70BFCFEE7F2
:100E900010B50446016810A0FFF78EFD11A061682F
:100EA000FFF78AFD12A0A168FFF786FD13A0E16895
:100EB000FFF782FD14A02169FFF77EFD15A061698F
:100EC000FFF77AFD16A0A169FFF776FD17A0E1698B
:100ED000FFF772FD10BD0000723020203D203078F9
:100EE00025780A00723120203D20307825780A00CC
:100EF000723220203D20307825780A00723320207D
:100F00003D20307825780A00723132203D2030783B
:100F100025780A006C7220203D20307825780A0060
:100F2000706320203D20307825780A00707372208D
:100F30003D20307825780A000048E8010080000054
:100F400000D8B80500960000006CDC02000000002C
:100F500000000000006CDC020048E8010000000016
:100F600000800000006CDC02000000000096000021
:100F70000048E8010000000000800000006CDC0276
:100F800000000000009600000048E801000000009A
:100F900000800000006CDC020000000000960000F1
:100FA0000000000004000000080000000C00000029
:100FB0000000000000000000000000001000000021
:100FC0000000000004000000080000000000000015
:100FD00004000000080000000048E8010080000054
:100FE000000000000000000000000000009600006B
:100FF00000000000006CDC02544D52315F49525138
:1010000048616E646C6572002810000000000020CA
:1010100018000000D809000040100000180000204F
:1010200000020000E809000000D8B80560000000D8
:1010300000D8B8050000000000000000000000001B
:04000005000000F106
:00000001FF
